:020000040800F2
:10000000080700204D0200080D1800089D14000884
:100010000918000815040008351A0008000000003F
:100020000000000000000000000000001918000897
:100030001904000800000000151800081D18000829
:1000400067020008670200086702000867020008EC
:1000500067020008670200086702000867020008DC
:100060001D04000867020008670200086702000814
:1000700067020008670200086702000867020008BC
:1000800067020008670200086702000867020008AC
:10009000670200086702000867020008670200089C
:1000A000670200086702000867020008670200088C
:1000B000670200086702000867020008670200087C
:1000C000670200086702000867020008670200086C
:1000D000670200086702000867020008670200085C
:1000E000670200086702000867020008670200084C
:1000F000670200086702000867020008670200083C
:10010000670200086702000867020008670200082B
:10011000670200086702000867020008670200081B
:10012000670200086702000867020008670200080B
:1001300067020008670200086702000867020008FB
:1001400067020008670200086702000867020008EB
:1001500067020008670200086702000867020008DB
:1001600067020008670200086702000867020008CB
:10017000670200086702000867020008000000002C
:1001800067020008670200086702000867020008AB
:10019000670200086702000867020008670200089B
:1001A00000000000000000006702000800F002F8F4
:1001B00000F03CF80AA090E8000C82448344AAF1C5
:1001C0000107DA4501D100F031F8AFF2090EBAE8C3
:1001D0000F0013F0010F18BFFB1A43F0010318477B
:1001E000641C0000841C0000103A24BF78C878C149
:1001F000FAD8520724BF30C830C144BF04680C602D
:10020000704700000023002400250026103A28BF74
:1002100078C1FBD8520728BF30C148BF0B60704778
:100220001FB501F0E9FD1FBD10B510BD00F0BCF811
:100230001146FFF7F5FF01F0FFFB00F0DAF803B419
:10024000FFF7F2FF03BC00F0DDF80000094880472B
:1002500009480047FEE7FEE7FEE7FEE7FEE7FEE7A8
:10026000FEE7FEE7FEE7FEE704480549054A064BC0
:1002700070470000DD180008AD01000808010020EB
:1002800008070020080300200803002053EA020C9E
:1002900000F069802DE9F04B4FF00006002B1FBFE6
:1002A000B3FA83F503FA05F424FA05F65E4012BFAB
:1002B0001643B2FA82F502FA05F4C5F120051EBF15
:1002C00022FA05FC44EA0C04203556EA044C4FEAB5
:1002D000144418BF641C4FF000084FF0000990420E
:1002E00071EB030C39D3002919BFB1FA81F701FA78
:1002F00007F6B0FA80F700FA07F6C7F120071EBF2D
:1003000020FA07FC46EA0C062037B6FBF4FCA7EB04
:100310000507103F07F01F0BCBF120062CFA06F65D
:100320000CFA0BFB44BFB3460026202FA4BF5E4649
:100330004FF0000B5BEA060C08BF4FF0010B19EB06
:100340000B0948EB0608ABFB027C06FB02CC0BFB5F
:1003500003CCC01B71EB0C01C1E70B4602464146C2
:100360004846BDE8F08B13B5084318BF4FF0FF3087
:100370000146AFF30080BDE81C40704770477047EE
:10038000704710B500F008F8006810BD10B50446BD
:1003900000F002F8046010BD004870471000002013
:1003A00000487047100000207546FFF7F9FFAE4681
:1003B00005006946534620F00700854618B020B571
:1003C000FFF752FFBDE820404FF000064FF0000756
:1003D0004FF000084FF0000BAC46ACE8C009ACE8A9
:1003E000C009ACE8C009ACE8C00921F007018D469E
:1003F000704710B50446AFF300802046BDE81040BA
:10040000FFF71DBF01491820ABBEFEE72600020022
:1004100070470000FEE7000070470000042000F075
:1004200013B8000072B600BFFEE70000042818BF32
:10043000704740F20010C2F200000178B1FA81F179
:10044000490901707047000043F61441C4F20101EC
:100450000A68024214BF08607047FFF7E7BF000058
:100460002DE9F04F82B000F13E4242F2004502F128
:10047000FF77C4F202050A2243F6004E4FEAB72680
:10048000A84208BF0922C4F2010E092E38BF4FEA64
:10049000B7220125002600274FF00008009208E04F
:1004A00008F101080437B8F1100F06F1020600F058
:1004B000A7800C6805FA08F914EA090FF0D0D1F802
:1004C00004B003220BF0030CACF10104B240012C88
:1004D0006FEA020A10D88268CC6802EA0A02B440C5
:1004E000224382604268CBF3001422EA090204FA34
:1004F00008F42243426005E0BCF1030F02D14FF043
:10050000030C20E0C2688C6802EA0A02B44022436D
:10051000BCF1020FC26016D16FF0030202EA58026A
:100520000244D2F820C007F01C050F230C69AB4031
:100530002CEA030304FA05F52B431362D1F804B047
:1005400001250BF0030C02680CFA06F302EA0A021A
:100550001A431BF4403F0260A2D0002243F644033A
:100560000192C4F202031A684FF6084C42F480422A
:100570001A601A68CFF6FF7C02F480420192019A59
:1005800028F00302724452F80C3007F00C050F24D7
:10059000AC40A343009C04FA05F52B4342F80C3011
:1005A000DEF808204B6842EA090543F60C4CDC02F1
:1005B00058BF22EA0905CEF80850C4F2010CDCF855
:1005C00000209C0242EA090558BF22EA0905CCF83E
:1005D0000050DEF804209C0342EA090558BF22EAD5
:1005E0000905CEF80450DEF80020DB0342EA0905D5
:1005F00058BF22EA0905CEF80050012550E700BF98
:1006000002B0BDE8F08F0000002A08BF0904816134
:100610007047000040F20410C2F20000006870470A
:1006200040F2000040F20411C2F20000C2F20001E8
:1006300000780A68104408607047000080B543F6EF
:100640000040C4F20200016841F4007101600168D9
:1006500041F480610160016841F480710160032010
:1006600000F088F80F2000F005F800F027F80020CF
:1006700080BD000070B540F20006C2F2000640F2F4
:1006800008013278C2F200014FF47A730968B3FBB3
:10069000F2F20446B1FBF2F1084600F06FFB0F2CBA
:1006A0004FF0010508D838B94FF0FF30214600223D
:1006B000002500F033F87460284670BD82B0002039
:1006C00043F640010190C4F202014A6842F48042BC
:1006D0004A604A6802F480420192019A00900868D8
:1006E00040F080500860086800F08050009000984A
:1006F00002B07047002848BF7047C1B200F01F0029
:10070000012202FA00F04EF20012CEF2000242EA9A
:10071000D10121F0030108607047000010B54EF6CA
:100720000C5CCEF2000CDCF80030C3F3022E8EF02D
:100730000704042C28BF0424BEF103034FF0FF3E3E
:100740000EFA04F438BF0023A14399400EFA03F3D4
:100750009A43114300F00F0200F160430901043A8B
:1007600003F564436244002848BF02F10C0319708A
:1007700010BD00004EF60C51CEF200010A684FF693
:10078000FF031A4060F30A2242F0806040F0FD70DF
:100790000860704770B582B00020019043F64000B9
:1007A000C4F202000168402641F0805101600068F7
:1007B000C4F20E2600F080500190019847F2040523
:1007C0000120C4F200053060FFF724FF044600BF9B
:1007D0002868C00306D4FFF71DFF001BB0F57A7F21
:1007E000F6D90EE001207060FFF714FF044600BF49
:1007F0002868800308D4FFF70DFF001BB0F57A7F4F
:10080000F6D9032002B070BD002002B070BD000018
:10081000704700002DE9F041002800F08B8043F67E
:100820000808C4F202080446D8F8F8030D4600F0A0
:100830000F00884207D288F8F853D8F8F80300F080
:100840000F00A84276D12068810717D5410705D54A
:10085000D8F8001041F4E051C8F80010010705D5A0
:10086000D8F8001041F46041C8F80010D8F8001022
:10087000A26821F0F0011143C8F80010C0073FD171
:10088000D8F8F80300F00F00A84207D988F8F85309
:10089000D8F8F80300F00F00A8424BD120684107B8
:1008A00007D5D8F80010E26821F4E0511143C8F8E8
:1008B0000010000708D5D8F80000216920F4604036
:1008C00040EAC100C8F8000000F05AF8D8F800105B
:1008D00041F63462C1F30311C0F60002515C40F2EC
:1008E000080220FA01F140F20400C2F200000068A0
:1008F000C2F200021160FFF7BDFE0020BDE8F081EA
:100900006068811E022907D258F8081C89015CBF63
:100910000120BDE8F08111E0012807D158F8081C3A
:1009200089035CBF0120BDE8F08107E058F8081C8E
:10093000890703D40120BDE8F08100BFD8F800107A
:1009400021F003010843C8F80000FFF763FE0646E4
:1009500041F28837D8F80000616800F00C00B0EB75
:10096000810F8DD0FFF756FE801BB842F2D90320CD
:10097000BDE8F0814C20C4F247200121016070479E
:1009800010B543F60404C4F20204606800F00C00E1
:1009900008280BD0042819BF42F20040C0F2F4002E
:1009A00041F60030C0F2B70010BD00BF20682168DA
:1009B0002368490241F60031C0F2B70100F03F025E
:1009C000C3F388105CBF42F20041C0F2F401A1FB06
:1009D00000010023FFF75AFC21680222C1F3014104
:1009E00002EB4101B0FBF1F010BD000010B543F681
:1009F0000C04C4F202042068000658BF10BDFFF7C3
:100A000007FF8020A07010BD2DE9F04182B00028C2
:100A100068D00446007843F60006C007C4F2020618
:100A20000BD0B06800F00C00042840F09F803068C4
:100A3000800302D56068002854D0207880071AD53A
:100A4000B06810F00C0F09D0B06800F00C00082856
:100A500040F0A6807068400200F1A28030688007F4
:100A600002D5E06801283DD13068216920F0F80006
:100A700040EAC10030602078000737D42078400772
:100A80004CD4A56955B3B06800F00C00082840F0BC
:100A9000BB80012D26D07068E16900F480028A4293
:100AA00020D1216A00F03F028A421BD147F6C07173
:100AB000626A0140B1EB821F14D1A16A4FF6FF7345
:100AC000C903994300F44032A1F580318A4209D12B
:100AD000E16A00F07060B0EB016F03D1002002B05A
:100AE000BDE8F081012002B0BDE8F0816069002816
:100AF00040F20000C4F2472076D00121C0F8801EE9
:100B0000FFF788FD054600BF706F8007B6D4FFF77A
:100B100081FD401B0228F7D9DDE000BF306C10F0EA
:100B200080580AD100200190306C40F08050306431
:100B3000306C00F080500190019847F20007C4F239
:100B400000073868C00541D4386840F480703860C8
:100B5000FFF760FD054600BF3868C00536D4FFF7D3
:100B600059FD401B0228F7D9B5E000BFB06800F07E
:100B70000C00082803D1706840023FF558AF606848
:100B8000B0F5803F07D0B0F5A02F40F08D803068E1
:100B900040F480203060306840F4803030608DE078
:100BA000E068002852D00020C4F2472001210160F3
:100BB000FFF730FD054600BF306880073FF554AFB2
:100BC000FFF728FD401B0228F6D984E0A068012821
:100BD00005D005284ED1306F40F004003067306FEB
:100BE00040F0010030674FE00021C0F8801EFFF7A1
:100BF00011FD0546706F80077FF540AFFFF70AFDD6
:100C0000401B0228F6D966E00027C4F247270020DF
:100C10003866FFF7FFFC022D05460BD130688001D6
:100C20005ED5FFF7F7FC401B02284FF00300F5D913
:100C300055E700BF306880017FF550AFFFF7EAFC51
:100C4000401B02284FF00300F4D948E70020C4F20B
:100C5000472000210160FFF7DDFC05463068800772
:100C60007FF509AFFFF7D6FC401B02284FF00300C9
:100C7000F4D934E7316F002821F001013167316F79
:100C800021F0040131674DD0FFF7C4FC054641F265
:100C9000883700BF306F800756D4FFF7BBFC401B7E
:100CA000B842F7D917E000BF3168002821F480313D
:100CB0003160316821F4802131604FD0FFF7AAFC08
:100CC000054600BF306880033FF5B7AEFFF7A2FCD2
:100CD000401B6428F6D9032002B0BDE8F08100BFB4
:100CE00004F11C052FCD084340EA8210D9034FF6CA
:100CF000FF729143A1F5803140EA056008437060BE
:100D000001203866FFF786FC044600BF306880018A
:100D10003FF5E4AEFFF77EFC001B02284FF0030016
:100D2000F4D9DCE6FFF776FC054641F2883700BFD0
:100D3000306F800708D5FFF76DFC401BB8424FF0BD
:100D40000300F5D9CBE600BFB8F1000F7FF499AEF0
:100D5000306C20F08050306493E600BFFFF75AFCFF
:100D6000054600BF306880037FF567AEFFF752FC91
:100D7000401B64284FF00300F4D9B0E6411E002068
:100D8000B0EB116F1CBF012070474EF21002CEF283
:100D9000000251604EF62351CEF20001F0230B7099
:100DA0000721906011607047B0B590F83C20012A8F
:100DB00004BF0220B0BD01F108053CCDD1E900CE51
:100DC00023F47C5322F470521A432EF4F0431A4356
:100DD0002CF4E0431A4324F4C0431A432A43C9695C
:100DE00022F48042036811435964002180F83C10CA
:100DF0000846B0BD10B590F83C20012A4FF0020221
:100E000051D080F83D200268D2F804E0D2F808C042
:100E10000C682EF07003234341F2FF74C4F2000407
:100E2000A24253600EDC40F2FF73C4F200039A4208
:100E300016DCB2F1804F2BD040F20043C4F2000325
:100E400024E000BF40F2FF33C4F201039A4213DCF6
:100E500041F60003C4F200039A4219D0002313E0C4
:100E600040F60003C4F200039A4211D040F600435A
:100E7000C4F200030AE000BF44F20003C4F201031D
:100E80009A4205D040F20043C4F201039A4204D1D1
:100E900049682CF08003194391600121002280F8F9
:100EA0003D1080F83C20104610BD0000002804BF13
:100EB0000120704710B5044690F83D0028B9002085
:100EC00084F83C00204600F01FF8022084F83D0022
:100ED0002068211D00F00CFD012084F8460084F8F4
:100EE0003E0084F83F0084F8400084F8410084F814
:100EF000420084F8430084F8440084F8450084F8F4
:100F00003D00002010BD000082B0006841F60001E5
:100F1000C4F20001884215D00021C4F201018842C8
:100F20001FD10020019043F64000C4F20200416846
:100F300041F001014160406800F00100019001981A
:100F400002B070470020009043F64000C4F2020057
:100F5000016841F040010160006800F0400000902D
:100F6000009802B07047000080B590F83C20012A3C
:100F70004FF0020200F0C28080F83D20D0F800C09F
:100F80004FF67772DCF8083023EA0202CCF808202A
:100F90000B684F2B28DC1F2B44DD202B45D0302B3A
:100FA00043D0402B40F0AC80D1F804E0C968DCF8B5
:100FB0002030DCF8202022F00102CCF82020DCF8E0
:100FC000182022F0F00242EA011123F00A0242EA5C
:100FD0000E02CCF81810CCF82020DCF8081041F0F4
:100FE000470121F0300180E06F2B27DDB3F5005F72
:100FF00048D0B3F5805F7AD0702B40F08180D1E982
:1010000001E3C968DCF8082043EA0E0322F47F42BA
:1010100043EA01211143CCF80810DCF8081041F034
:10102000770162E00BB1102B6AD1DCF8081021F0D7
:101030007001194341F0070157E000BF502B35D034
:10104000602B5DD1D1F804E0C968DCF82030DCF811
:10105000202022F01002CCF82020DCF8182022F406
:10106000704242EA013123F0A00242EA0E12CCF8AB
:101070001810CCF82020DCF8081041F0670121F0AE
:10108000100132E0D1E901E3C968DCF8082043EA45
:101090000E0322F47F4243EA01211143CCF80810E9
:1010A000DCF8081041F480411FE000BFD1F804E0F3
:1010B000C968DCF82030DCF8202022F00102CCF8EE
:1010C0002020DCF8182022F0F00242EA011123F07F
:1010D0000A0242EA0E02CCF81810CCF82020DCF804
:1010E000081041F0570121F02001CCF8081000222F
:1010F000012180F83D10002180F83C10104680BD91
:101100000122F5E72DE9F04390F83C30012B04BFB4
:101110000220BDE8F0834FEAB202032A00F2FC800D
:10112000DFE802F0023E7EBE036840F200471C6A20
:101130001A6A24F0020422F001021A621A46D3F855
:1011400004E052F818CF8E6843F48065C4F20107BA
:10115000BD4244EA060405D1CE6824F00C0426F012
:10116000040634430E68BD4207D1D1E905572EF479
:10117000407E45EA0E0545EA070E2CF0730737431B
:10118000C3F804E09F614F6809695F631C629F694F
:1011900047F008079F619F6927F004079F61B1E04E
:1011A000036840F200481C6A1A6A24F0200422F006
:1011B00010021A621A46D3F804C052F818EF8F686A
:1011C00043F48065C4F20108454544EA071407D199
:1011D000CF686FF0400624F0C00406EA07163443D7
:1011E000D1F80090454506D1D1E905562CF4406769
:1011F0002E4347EA860C2EF4E64747EA0927C3F850
:1012000004C09F614F6809699F631C629F6947F42E
:1012100000679F619F6927F480679F6171E000BF4D
:10122000036840F200481C6A1A6A24F4007422F42D
:1012300080721A621A46D3F804C052F81CEF8F6805
:1012400043F48065C4F20108454544EA072408D107
:10125000CF6840F2FF463F0224F4406427EA0606C6
:101260003443D1F80090454506D1D1E905562CF418
:1012700040572E4347EA061C2EF0730747EA09073A
:10128000C3F804C0DF614F680969DF631C62DF696E
:1012900047F00807DF61DF6927F00407DF6131E00D
:1012A000036840F20045D3F820C01A6A43F480670F
:1012B00022F480521A621A465C6852F81CEFD1F888
:1012C00000808E68C4F20105AF4204D14D6924F458
:1012D000804444EA85142CF4005747EA06372EF47C
:1012E000E64646EA08265C60DE614E6809691E64CF
:1012F0001F62DF6947F40067DF61DF6927F48067F9
:10130000DF6109021368194311600021002280F88F
:101310003C200846BDE8F0830121002280F83C20F3
:101320000846BDE8F0830000002804BF0120704794
:1013300010B5044690F83D0028B9002084F83C0020
:10134000204600F01FF8022084F83D002068211D8F
:1013500000F0CEFA012084F8460084F83E0084F8BC
:101360003F0084F8400084F8410084F8420084F88B
:10137000430084F8440084F8450084F83D000020D0
:1013800010BD00007047000041B1082910D00429A9
:1013900014BF00F1410200F13F020BE090F83E2043
:1013A000012A1CBF01207047022280F83E2013E072
:1013B00000F140021278012A1CBF0120704702226E
:1013C000082907D0042914BF80F8412080F83F2065
:1013D00002E000BF80F84020006801F01F010122F8
:1013E000036A02FA01F123EA01020262026A11436E
:1013F00041F2FF72C4F20002904201620CDC40F242
:10140000FF71C4F20001884214DCB0F1804F37D084
:1014100040F2004116E000BF40F2FF31C4F201018A
:10142000884215DC41F60001C4F20001884227D051
:10143000002115E040F60001C4F2000188421FD0EF
:1014400040F60041C4F20001884219D01FE000BFFD
:1014500044F20001C4F20101884211D040F200417F
:10146000C4F20101884212D1416C40F2004340F4C1
:101470008062C4F2010341F400419A42416406D102
:10148000816801F00701062904BF00207047016848
:1014900041F001010160002070470000FEE70000FC
:1014A000F0B587B0002643F63000CDE90566019619
:1014B000C4F20200016841F2004441F00101016000
:1014C0000168C4F2020401F0010101910199019641
:1014D0000168002241F08001016001684FF48047FB
:1014E00001F08001019101990196016841F002012A
:1014F0000160016801F00201019101990196016802
:1015000041F010010160016801F0100101910199A1
:101510000196016841F02001016000684FF48041AC
:1015200000F02000019001982046FFF76DF804209C
:1015300002904FF488100390022002AD0490A4F5AD
:1015400080502946FEF78CFF0120CDE9030020469C
:10155000294602970596FEF783FF08200021002206
:10156000FFF7DCF80820FFF7C5F807B0F0BD000072
:10157000B0B590B041F6000540F2B800C4F20005E5
:101580000021C2F20000592240F2E7330A91CDE96E
:1015900008110691CDE90411CDE90211CDE9001140
:1015A000C0E90052C0E9021301618161FFF77EFCCE
:1015B000002818BFFEF736FF4FF48050079040F226
:1015C000B800C2F2000007A9FFF7CEFC002818BF40
:1015D000FEF728FF40F2B800C2F20000FFF7A4FEB9
:1015E000002818BFFEF71EFF6020009040F2F310A5
:1015F00040F2B80401900020C2F20004029004906E
:10160000694620460022FFF77DFD002818BFFEF73F
:1016100009FF2068A84219D00021C4F201018842C4
:1016200031D100200B9043F63000C4F20200016873
:101630004FF4006241F0100101600068012100F0E8
:1016400010000B900B9805F5FC3012E000200B9079
:1016500043F63000C4F202000168402241F08001EC
:1016600001600068092100F080000B900B9805F5DF
:1016700001300B9202220C9200220F910BA9CDE9AE
:101680000D22FEF7EDFE10B0B0BD0000B0B59CB06D
:10169000002540F27000C4F201050021C2F20000F2
:1016A000B32240F2E7331691CDE914111191CDE93F
:1016B0000F11CDE90D11CDE90B11CDE90911CDE9DE
:1016C0000711CDE90511CDE90311CDE90111C0E9FB
:1016D0000052C0E90213C0E904118161FFF7E6FB83
:1016E000002818BFFEF79EFE4FF48050139040F282
:1016F0007000C2F2000013A9FFF736FC002818BFE3
:10170000FEF790FE40F27000C2F20000FFF70CFE00
:10171000002818BFFEF786FE40F270000024C2F2D7
:10172000000010A9CDE91044FFF764FB002818BFA2
:10173000FEF778FE7020099040F2F310CDE90A041C
:1017400040F27000C2F2000009A90422CDE90C4465
:10175000CDE90E44FFF7D6FC002818BFFEF762FE65
:1017600040F2700400204FF40051C2F200040590D2
:10177000CDE90300CDE901000691089001A92046BA
:10178000FFF712FB002818BFFEF74CFE206841F659
:101790000001C4F20001884216D0A84231D10020D5
:1017A000179043F63000C4F2020001684FF4006263
:1017B00041F0100101600068012100F01000179055
:1017C000179805F5883012E00020179043F6300096
:1017D000C4F202000168402241F08001016000680B
:1017E000092100F080001790179805F58E301792A8
:1017F0000222189200221B9117A9CDE91922FEF7A7
:101800002FFE1CB0B0BD0000FEE70000FFF7EEF8B1
:10181000FEE700007047000070470000FEF700BFC1
:1018200080B592B0002043F64001CDE90A00CDE931
:1018300008000590CDE90300CDE901000090C4F255
:1018400002010A6842F080520A60096801F0805182
:1018500000910099009047F20000C4F20000016876
:1018600041F44041016000684FF4800100F44040C1
:1018700000900098012006904FF480300D910621D1
:10188000079002200E91B4210C90CDE90F10042096
:10189000119006A8FFF7B8F810B172B6FEE700BFC6
:1018A000FEF778FF10B172B6FEE700BF0F2001907F
:1018B00002200290002003904FF4A05004904FF4B7
:1018C0008050059001A80521FEF7A4FF10B172B663
:1018D000FEE700BFFFF74EF812B080BD4EF688500D
:1018E000CEF20000016841F4700101607047000011
:1018F000B0B540F6FF3E0568C4F2000E40F2004C61
:101900007045C4F2010C27DCB0F1804F31D040F2B9
:101910000043C4F2000398422BD040F60003C4F207
:101920000003984225D041F6FF73C4F200039842A9
:101930002ADC70453CDCB0F1804F5FD040F20043C0
:10194000C4F20003984259D040F60003C4F20003E9
:10195000984253D057E000BF40F60043C4F2000362
:10196000984206D0604504D00023C4F20103984297
:10197000D9D14B6825F0700243EA020541F6FF73A6
:10198000C4F200039842D4DD43F6FF73C4F20103AE
:10199000984221DC42F20003C4F2000398422DD0A9
:1019A0000023C4F20103984228D0604526D02AE0E3
:1019B00040F60043C4F2000398421FD041F60003F2
:1019C000C4F20003984219D041F60043C4F2000368
:1019D000984213D017E000BF44F20003C4F20103A1
:1019E00098420BD044F60003C4F20103984205D09C
:1019F00044F20043C4F20103984204D1CB6825F4B9
:101A0000407243EA02050A688C684B69C46240F47C
:101A100080648262644504BF09690163026825F03D
:101A2000800142F004021943026001224261016018
:101A3000B0BD0000FEE70000FEF700FEFFF7F0FE7D
:101A4000FFF72EFDFFF722FEFFF792FD40F2700434
:101A5000C2F2000420460421FFF796FC40F2B800D1
:101A6000C2F200000021FFF78FFC41F20040C4F2F7
:101A700002004FF480410122FEF7C6FD20689FED71
:101A8000108ABFEE009A00BFC06A013000EE100A53
:101A9000B8EE40AAFEF7BEFD800000EE100AB8EED8
:101AA000400A80EE080A00F021F82AEE000A30EE23
:101AB000090A2068BCEEC00A80ED0E0AE4E700BF08
:101AC00000007A444100080218BF04200A0E18BF23
:101AD00040F001004FF07F4232EA010108BF40F0C0
:101AE0000200012808BF05207047000000B510EE75
:101AF000101A2DED028B81B0524A6846B2EB410FAD
:101B00002ED94FF0E640B0EB410F94BF00204FF0CC
:101B1000FF3000900098B0EE408A00286ADB10F099
:101B2000010F4BD068EE080A9FED471A9FED470A58
:101B300000EE810A9FED461A10F0020F00EE801AA7
:101B4000B7EE000A00EE810A02BF01B0BDEC028BC5
:101B500000BD00BF01B0B1EE400ABDEC028B00BD7C
:101B60003C4B21F00042934241D911F0004FDFED90
:101B70003A0A20EE201ADFED390A19BF31EE601A59
:101B800071EE200A31EE201A71EE600ABDEEE01A05
:101B900011EE100A9FED321A00F0030000EEC10AA8
:101BA0009FED301A009000EEC10A9FED2F1A00EE53
:101BB000C10A9FED2E1A00EEC10AABE728EE080A13
:101BC0009FED2B1ADFED2B0A10F0020F40EE010AF9
:101BD0009FED291A00EE201A61EE000AB0EE480AC5
:101BE00008EE200AB6D101B0BDEC028B00BD00F0BA
:101BF00059F88FE718EE100A4000B0F17F4F0DD270
:101C000018EE100AFFF75EFF042808BF00F042F844
:101C1000B0EE480A01B0BDEC028B00BD09D1012035
:101C2000FEF7B4FB01B0BDEC028B5DF804EB00F0F5
:101C300029B801B0B0EE480ABDEC028B5DF804EBA8
:101C400000F01CB8B61F927EB93AB2BACA9F2A3DBC
:101C5000DDFFFFBE490E494683F9223F0000004BDD
:101C60000000C93F00A0FD390020A2331A61342CC6
:101C7000336D4CB9DA82083CA0AA2ABE30EE000AC5
:101C800070470000DFED020A80EEA00A70470000F6
:101C9000000000009FED020A20EE000A70470000DD
:101CA000000000102DE9F0014FF07F42B2EB410F30
:101CB0009FBF4FF0FF310160BDE8F00170474FF06A
:101CC000004242EA0123C1F3C752783A551112F09B
:101CD0001F0C434CCCF120067C44C1F3C752A2F147
:101CE00078024FEA621204EB820254F8254008BFE2
:101CF000D2E9015612D0556804FA0CF425FA06F719
:101D00003C43976805FA0CF527FA06F8D26807FAFB
:101D10000CFCF24045EA08054CEA0206A4FB034C21
:101D2000A5FB0352A6FB03631D449D4234BF01265D
:101D300000261319334416B1934202D903E09342AB
:101D400001D2012200E00022624402F1200C92063E
:101D5000DC0C42EA443200EE102A5B03DFED210A7C
:101D6000F8EEC01A00EE103A4FEA9C1C11F0004F3A
:101D7000B8EE400AC0F800C020EE201A00EE105A5B
:101D8000DFED190AB8EE400A20EE200A71EE810A52
:101D900070EE800A10EE902A02F500626FF30B02DB
:101DA00000EE902A70EEE11A31EEC11ADFED101A42
:101DB00030EE411A9FED0D0A20EE800A01EE210A55
:101DC0009FED0C1A00EE810A04BFBDE8F0017047D8
:101DD000CCF180510160BDE8F001B1EE400A7047DE
:101DE00038010000000000360000802C22AAFD29E6
:101DF000DB0FC92F0000C92FF1EE100A4FF6FF715B
:101E0000C0F2C03120EA010040F04070E1EE100A5B
:101E100070470000000000006E83F9A22915444EAF
:101E2000D15727FCC0DD34F5999562DB4190433CE6
:101E3000AB6351FE0000000000000000010203043B
:101E400006070809681E00080000002010000000B6
:101E5000E8010008781E000810000020F8060000C5
:101E60000402000800000000010000001000000053
:081E70000024F4000000000052
:04000005080001AD41
:00000001FF
