:020000040800F2
:10000000380900204D02000815340008752F00083B
:1000100011340008E5040008093C00080000000055
:100020000000000000000000000000002134000873
:100030000D050008000000001D34000825340008EC
:1000400067020008670200086702000867020008EC
:1000500067020008670200086702000867020008DC
:10006000110500086702000867020008670200081F
:10007000F50400086702000801050008670200088F
:1000800067020008670200086702000867020008AC
:10009000E904000867020008670200086702000818
:1000A00067020008F93400086702000867020008C8
:1000B000670200086702000867020008670200087C
:1000C000670200086702000867020008670200086C
:1000D000670200086702000867020008670200085C
:1000E000670200086702000867020008670200084C
:1000F000670200086702000867020008670200083C
:10010000670200086702000867020008670200082B
:10011000670200086702000805350008670200084A
:10012000670200086702000867020008670200080B
:1001300067020008670200086702000867020008FB
:1001400067020008670200086702000867020008EB
:1001500067020008670200086702000867020008DB
:1001600067020008670200086702000867020008CB
:10017000670200086702000867020008000000002C
:100180006702000867020008553600086702000889
:10019000670200086702000867020008670200089B
:1001A00000000000000000006702000800F002F8F4
:1001B00000F03CF80AA090E8000C82448344AAF1C5
:1001C0000107DA4501D100F031F8AFF2090EBAE8C3
:1001D0000F0013F0010F18BFFB1A43F0010318477B
:1001E0000C3B00002C3B0000103A24BF78C878C1BB
:1001F000FAD8520724BF30C830C144BF04680C602D
:10020000704700000023002400250026103A28BF74
:1002100078C1FBD8520728BF30C148BF0B60704778
:100220001FB503F046FD1FBD10B510BD00F020F94D
:100230001146FFF7F5FF03F0E9FC00F03EF903B4C7
:10024000FFF7F2FF03BC00F045F9000009488047C2
:1002500009480047FEE7FEE7FEE7FEE7FEE7FEE7A8
:10026000FEE7FEE7FEE7FEE704480549054A064BC0
:1002700070470000E5340008AD0100083803002095
:1002800038090020380500203805002053EA020C08
:1002900000F069802DE9F04B4FF00006002B1FBFE6
:1002A000B3FA83F503FA05F424FA05F65E4012BFAB
:1002B0001643B2FA82F502FA05F4C5F120051EBF15
:1002C00022FA05FC44EA0C04203556EA044C4FEAB5
:1002D000144418BF641C4FF000084FF0000990420E
:1002E00071EB030C39D3002919BFB1FA81F701FA78
:1002F00007F6B0FA80F700FA07F6C7F120071EBF2D
:1003000020FA07FC46EA0C062037B6FBF4FCA7EB04
:100310000507103F07F01F0BCBF120062CFA06F65D
:100320000CFA0BFB44BFB3460026202FA4BF5E4649
:100330004FF0000B5BEA060C08BF4FF0010B19EB06
:100340000B0948EB0608ABFB027C06FB02CC0BFB5F
:1003500003CCC01B71EB0C01C1E70B4602464146C2
:100360004846BDE8F08B13B5084318BF4FF0FF3087
:100370000146AFF30080BDE81C407047032A40F2FD
:10038000308010F0030C00F0158011F8013BBCF137
:10039000020F624498BF11F801CB00F8013B38BF4F
:1003A00011F8013BA2F1040298BF00F801CB38BF5D
:1003B00000F8013B11F0030300F02880083AC0F078
:1003C000088051F8043B083A51F804CBA0E8081023
:1003D000F5E7121D5CBF51F8043B40F8043BAFF356
:1003E0000080D20724BF11F8013B11F801CB48BFB0
:1003F00011F8012B24BF00F8013B00F801CB48BFE6
:1004000000F8012B704770477047704710B5203ACD
:10041000C0F00B80B1E81850A0E81850B1E81850AF
:10042000A0E81850203ABFF4F5AF5FEA027C24BF81
:10043000B1E81850A0E8185044BF18C918C0BDE86A
:1004400010405FEA827C24BF51F8043B40F8043B33
:1004500008BF7047D20728BF31F8023B48BF11F8E8
:10046000012B28BF20F8023B48BF00F8012B704742
:10047000754600F02BF8AE4605006946534620F05D
:100480000700854618B020B5FFF7EEFEBDE8204016
:100490004FF000064FF000074FF000084FF0000B40
:1004A000AC46ACE8C009ACE8C009ACE8C009ACE8AF
:1004B000C00921F007018D46704710B50446AFF31F
:1004C00000802046BDE81040FFF7B9BE00487047E5
:1004D0007800002001491820ABBEFEE7260002008C
:1004E00070470000FEE7000040F22C10C2F200004E
:1004F00000F08EB940F2B410C2F2000000F09EBCD1
:1005000040F25410C2F2000000F098BC70470000A6
:10051000042000F077BE000072B600BFFEE70000C6
:1005200090F82020013A012A08D8006800F114024E
:100530000020136819431160704700BF00F12402C6
:1005400001204FF4802113681943116070470000A7
:1005500010B590F820E0D0F800C0AEF1010EBEF169
:10056000010FDCF808E011D81EF0E05F18D0CEF3E0
:10057000016E012000FA0EF018608B68D3B1486854
:10058000CC6844EAC000034318E000BF00F1240136
:1005900001204FF480220B681A430A6010BD00BF8F
:1005A00000F1240101204FF400120B681A430A6085
:1005B00010BD00BF0868CB6843EA40530CEB0E1037
:1005C000C0F880310B69C0F88431097D012905D15B
:1005D00000F5C2710B6843F480730B605168C0F87A
:1005E0008C11126800F5C071C0F88821002001222A
:1005F0000B681A430A6010BDB0B590F82020013A8C
:10060000012A2FD846F20060C4F20000026842F0CE
:1006100001020260026822F47C520260D1F814E008
:10062000CC694A6A0368012C43EA022202600EF098
:100630001F024FF0010303FA02F2C3696FEA020CD2
:1006400023EA0203C36113D02CBBC36803EA0C0383
:10065000C360CB688C8844EA034300EBCE04236478
:100660000B4611E0416A41F4802141620120B0BD96
:10067000C3681343C3600B688C8844EA034300EBF0
:10068000CE04236401F10C038C681B8843EA044305
:1006900000EBCE04636443688D6943EA0204D1F839
:1006A00010E0096A002D08BF03EA0C0444604369A6
:1006B000BEF1000F43EA020408BF03EA0C0401295B
:1006C000446102D1C1691143C161016821F0010196
:1006D00001600020B0BD00007047000010B590F828
:1006E0002040013C012C7BD8D0F800C0002900F04C
:1006F0008180DCF81040A40700F081800CEB011C25
:10070000DCF8B0410CF5D87E14F004049460DCF8F9
:10071000B04119BFE4085460640D1460DEF8004075
:100720000CF5DA7E04F00204D460DCF8B44124074E
:100730005ABFDEF8004004F00F0408241461DEF80C
:1007400000400029C4F307249461DEF800404FEA1A
:1007500014445461DCF8B8211A70026802EB0112EB
:10076000D2F8B8214FEA12225A70026802EB011245
:10077000D2F8B8214FEA12429A70026802EB0112D5
:10078000D2F8B8214FEA1262DA70026802EB011265
:10079000D2F8BC211A71026802EB0112D2F8BC2116
:1007A0004FEA12225A71026802EB0112D2F8BC2100
:1007B0004FEA12429A71026802EB0112D2F8BC2190
:1007C0004FEA1262DA71006814BF00F1100100F103
:1007D0000C01002020220B681A430A6010BD00BFE4
:1007E00000F1240101204FF480220B681A430A60B3
:1007F00010BD00BFDCF80C40A4077FF47FAF00F110
:10080000240101204FF400120B681A430A6010BD46
:100810002DE9F04F81B0044600684669D0F8049095
:100820008768D0F80CB0D0F810A0D0F81880F10785
:1008300004D1002530071DD424E000BFF90710D0F3
:100840000121BA07816009D4780700F1AF80380729
:1008500000F1B680204600F089FA02E0204600F060
:1008600087FA0025F80500F18780F80300F1B180D0
:10087000300707D51BF0100004D0206845F4007540
:100880001021C160700708D51BF0080005D0206852
:100890000821C160204600F0A1F9B00706D5206804
:1008A000C068800702D0204600F09AF9700607D58C
:1008B0001AF0100004D0206845F480651021016111
:1008C000B00608D51AF0080005D02068082101619B
:1008D000204600F017FAF00606D520680069800768
:1008E00002D0204600F010FAB00308D519F010002D
:1008F00005D0206810214160204600F007FAF0037F
:1009000008D519F0080005D020680821416020466C
:1009100000F038FA300440F19B805FEA497040F102
:10092000948006F4807008EA102028435FEA8871FA
:10093000014648BF41F00201B20558BF01465FEAD7
:1009400048700D4648BF45F00405700558BF0D4678
:10095000300540F17A8018F0700000F07680103891
:10096000000905286CD8DFE800F003595D6165696E
:1009700045F0080564E000BF20684FF48071BA05B7
:1009800081600BD4780515D438051DD4204600F0BD
:10099000F1F9F8037FF56CAF1BE000BF204600F0D3
:1009A000EBF9F8037FF564AF13E000BF4FF4006587
:1009B00058E700BF05F50055F8037FF559AF08E08B
:1009C0004FF480554EE700BF05F58045F8037FF5ED
:1009D0004FAF20684FF48031BA0381600AD47803A6
:1009E00010D4380314D4204600F0C8F930073FF57E
:1009F00041AF47E7204600F0C3F930073FF53AAF73
:100A000040E700BF05F5004530073FF533AF39E754
:100A100005F5803530073FF52DAF33E745F010057C
:100A20000EE000BF45F020050AE000BF45F040059C
:100A300006E000BF45F0800502E000BF45F4807588
:100A40002068816921F07001816120680421416082
:100A500055B1606A40EA05012046616201B0BDE817
:100A6000F04FFFF739BE00BF01B0BDE8F08F0000C6
:100A7000B0B5C8B1044690F8200010B9204600F087
:100A800071F82068016841F00101016000F0A0FCEC
:100A9000054600BF20684168C90707D100F098FCEF
:100AA000401B0B28F6D312E00120B0BD016821F0F5
:100AB0000201016000F08CFC054600BF206841681F
:100AC00089070DD500F084FC401B0B28F6D3606A23
:100AD000052140F400306062012084F82010B0BD90
:100AE000217E0268012922F0800208BF8032026064
:100AF000617E0268012922F0400208BF4032026094
:100B0000A17E0268012922F0200208BF2032026083
:100B1000E17E0268012922F0100218BF1032026043
:100B2000217F0268012922F0080208BF0832026012
:100B3000617F0268012922F0040208BF04320260CA
:100B4000D4E901C2D4E9033561691A432A43114348
:100B5000ACF101021143C16100200121606284F8FF
:100B60002010B0BD80B586B0016846F20040C4F2E6
:100B70000000814202D006B080BD00BF002143F6D4
:100B800030020191C4F20202136900F5D43043F03F
:100B900000731361136903F000730193019B0191CA
:100BA000136843F0080313601268022302F008027E
:100BB0000192019ACDE9023109210322059101A98F
:100BC0000192049200F02AFB14200021002200F080
:100BD00083FC142000F06CFC06B080BD7047000060
:100BE00010B540F22C11C2F20001884200D010BDB5
:100BF00040F2D804C2F2000440F22C1004F11002BA
:100C000004F10803C2F200000021FFF767FD20692C
:100C100040F20321884218BF10BD20899FED341A8D
:100C200040BA00EE100AB8EEC00A9FED322A20EE5C
:100C3000010A80EE020A40F25400C2F2000090ED78
:100C4000042A9FED2D4A90ED003A30EE422A32EE12
:100C5000015AB4EE442AF1EE10FAB8BFB0EE452ABC
:100C60009FED275A9FED254AB4EE452A32EE046ADD
:100C7000F1EE10FAC8BFB0EE462A82EE033A90EDCC
:100C8000015A80ED030A80ED040A80ED052A35EE55
:100C9000030AB4EE410A80ED023A30EE042AF1EE86
:100CA00010FAC8BFB0EE420AB5EE400A30EE011AA3
:100CB000F1EE10FAB8BFB0EE410A618980ED010A89
:100CC00049BA00EE101AA189B8EEC00A49BA80EDFF
:100CD000060A00EE101AA17BB8EEC00A80ED070AE2
:100CE00000EE101AB8EE400A80ED080A10BD00BFF1
:100CF0000000B44300F8FF45000034C30000B4C353
:100D00000000344370470000704700007047000047
:100D1000B0B5044690F8200001281DD1022084F8C7
:100D200020002068016821F00101016000F050FB03
:100D3000054600BF20684068C00713D000F048FB9C
:100D4000401B0B28F6D3606A40F400306062052037
:100D500084F820000120B0BD606A40F40020606289
:100D60000120B0BD00206062B0BD000070470000EF
:100D70007047000070470000704700007047000097
:100D8000704700007047000070B5866D044600F0A3
:100D90001FFB94F83510022928D105462068216CE4
:100DA000026822F016020260426922F0800242616B
:100DB00009B9A16C19B1016821F00801016001684D
:100DC00021F00101016000BF20680068C00715D054
:100DD00000F0FEFA401B0628F6D3202060650320B1
:100DE00084F83500002184F8341070BD80206065DF
:100DF0000120002184F8341070BD00BFE06D3F2158
:100E000001FA00F0B060012084F8350000200021D4
:100E100084F8341070BD000090F83510022909D113
:100E2000052180F835100068016821F0010101609A
:100E3000002070478021416501207047F0B581B0E6
:100E400004460020009040F22800C2F20000026830
:100E5000D4E9166048F2B51337680821C1F64E335D
:100E600081403942A2FB03250CD0226813685B073E
:100E700008D5136823F004031360B160616D41F07D
:100E80000101616501218140394208D0226852691F
:100E9000120604D5B160616D41F002016165042163
:100EA0008140394208D022681268920704D5B160A7
:100EB000616D41F00401616510218140394217D014
:100EC00020680268120713D5B160026801685203F6
:100ED00008D4C90508D4016821F008010160216C1B
:100EE00021B905E008033FD4216C09B120468847A9
:100EF000E16D202000FA01F23A4241D020680368F7
:100F0000DB063DD5B26094F835300268052B1BD165
:100F100022F016020260426922F080024261226CD5
:100F20000AB9A26C1AB1026822F0080202603F20DE
:100F30008840B060012084F83500216D0020002930
:100F400084F8340052D157E00168520310D4C90527
:100F500012D4016821F010010160012084F83500ED
:100F6000002084F8340007E0A16C0029BED1BFE75F
:100F7000080301D4616C00E0E16B09B120468847A9
:100F8000606DC8B3606DC0072ED0052084F83500B1
:100F90002068A90A026822F001020260009A013268
:100FA0008A4200921AD80268D20717D0009A0132FA
:100FB0008A42009212D80268D2070FD0009A0132FA
:100FC0008A4200920AD80268D20707D0009A0132FA
:100FD0008A42009202D80268D207DFD1012084F849
:100FE0003500002084F83400E16C29B1204601B0BE
:100FF000BDE8F040084700BF01B0F0BD2DE9F04169
:10100000044600F0E5F9ECB10546022084F835000D
:101010000020216884F83400086820F0010008608E
:1010200021680868C00711D000F0D2F9401B0528DC
:10103000F6D9032520230320636584F83550BDE8E5
:10104000F08100BF0120BDE8F08100BF086848F2D0
:101050003F02CFF21002D4E9013500EA020C04F19C
:101060000C0898E8C10143EA0C032B431843D4E968
:10107000072E304338431043626A40EA0E00042AC8
:1010800040EA08031CD1206BD4E90A2E40EA0E0086
:10109000184308604869BEF1000F20F0030040EAE1
:1010A000020040F0040C11D0B8F5005F36D0B8F162
:1010B000000F45D1022A46D0012A3BD032B942E086
:1010C0000B60486920F0070040EA020C01F0F800CC
:1010D0004AF6AB221038CAF6AA22A0FB02231A094C
:1010E00043F6E443C0F600039A5C40F2FF335F2806
:1010F0004FF03F00C1F814C021EA030100FA02F0EA
:1011000088BF0431C4E9161288600023012500203D
:10111000636584F83550BDE8F08100BF032AD5D857
:10112000012540230120DFE802F0030E030500BF84
:1011300082E700BFAEF1C070B0FA80F0400904E071
:10114000032A04D3C2D1CEF300600028BED001250B
:1011500040230120636584F83550BDE8F08100002C
:1011600070B590F834C0BCF1010F46D04FF0010CBF
:1011700080F834C0D0F858E090F835C0BCF1010FC9
:1011800038D14FF0020C80F835C04FF0000CC0F899
:1011900054C0D0F800C08468056CC06DDCF80060F5
:1011A000402C26F48026CCF80060CCF804300B46A6
:1011B00004BF13460A463F2101FA00F0CCF808307C
:1011C000CCF80C20CEF80800DCF8000040F0160047
:1011D000CCF800002DB1DCF8000040F00800CCF89D
:1011E0000000DCF8000040F00100CCF80000002016
:1011F00070BD00BF002180F83410022070BD0000D7
:101200007047000043F61441C4F201010A6802422B
:1012100014BF08607047FFF7F3BF00002DE9F04FDF
:1012200082B000F13E4242F2004502F1FF77C4F283
:1012300002050A2243F6004E4FEAB726A84208BF2D
:101240000922C4F2010E092E38BF4FEAB722012548
:10125000002600274FF00008009208E008F101087E
:101260000437B8F1100F06F1020600F0A7800C68F1
:1012700005FA08F914EA090FF0D0D1F804B00322F6
:101280000BF0030CACF10104B240012C6FEA020A2E
:1012900010D88268CC6802EA0A02B4402243826015
:1012A0004268CBF3001422EA090204FA08F422434C
:1012B000426005E0BCF1030F02D14FF0030C20E0C7
:1012C000C2688C6802EA0A02B4402243BCF1020FF1
:1012D000C26016D16FF0030202EA58020244D2F84B
:1012E00020C007F01C050F230C69AB402CEA030358
:1012F00004FA05F52B431362D1F804B001250BF075
:10130000030C02680CFA06F302EA0A021A431BF401
:10131000403F0260A2D0002243F644030192C4F28F
:1013200002031A684FF6084C42F480421A601A68A9
:10133000CFF6FF7C02F480420192019A28F003026A
:10134000724452F80C3007F00C050F24AC40A34354
:10135000009C04FA05F52B4342F80C30DEF8082017
:101360004B6842EA090543F60C4CDC0258BF22EAFE
:101370000905CEF80850C4F2010CDCF800209C02EC
:1013800042EA090558BF22EA0905CCF80050DEF808
:1013900004209C0342EA090558BF22EA0905CEF859
:1013A0000450DEF80020DB0342EA090558BF22EAB8
:1013B0000905CEF80050012550E700BF02B0BDE896
:1013C000F08F0000002A08BF090481617047000007
:1013D00040F23430C2F200000068704740F2200052
:1013E00040F23431C2F20000C2F2000100780A6813
:1013F000104408607047000080B543F60040C4F216
:101400000200016841F400710160016841F48061EB
:101410000160016841F480710160032000F088F8E8
:101420000F2000F005F800F027F8002080BD000034
:1014300070B540F22006C2F2000640F22801327870
:10144000C2F200014FF47A730968B3FBF2F204466A
:10145000B1FBF2F1084600F097FB0F2C4FF00105AD
:1014600008D838B94FF0FF3021460022002500F09F
:1014700033F87460284670BD82B0002043F6400106
:101480000190C4F202014A6842F480424A604A680C
:1014900002F480420192019A0090086840F0805066
:1014A0000860086800F080500090009802B0704713
:1014B000002848BF7047C1B200F01F00012202FAA5
:1014C00000F04EF20012CEF2000242EAD10121F009
:1014D000030108607047000010B54EF60C5CCEF2B8
:1014E000000CDCF80030C3F3022E8EF00704042C4D
:1014F00028BF0424BEF103034FF0FF3E0EFA04F4AC
:1015000038BF0023A14399400EFA03F39A431143D5
:1015100000F00F0200F160430901043A03F564434F
:101520006244002848BF02F10C03197010BD00008E
:101530004EF60C51CEF200010A684FF6FF031A4036
:1015400060F30A2242F0806040F0FD70086070474E
:1015500070B582B00020019043F64000C4F2020052
:101560000168402641F0805101600068C4F20E26F7
:1015700000F080500190019847F204050120C4F268
:1015800000053060FFF724FF044600BF2868C00351
:1015900006D4FFF71DFF001BB0F57A7FF6D90EE0E9
:1015A00001207060FFF714FF044600BF2868800325
:1015B00008D4FFF70DFF001BB0F57A7FF6D90320A2
:1015C00002B070BD002002B070BD00007047000086
:1015D0002DE9F041002800F08B8043F60808C4F2A2
:1015E00002080446D8F8F8030D4600F00F008842C0
:1015F00007D288F8F853D8F8F80300F00F00A84293
:1016000076D12068810717D5410705D5D8F8001095
:1016100041F4E051C8F80010010705D5D8F80010D2
:1016200041F46041C8F80010D8F80010A26821F019
:10163000F0011143C8F80010C0073FD1D8F8F803F3
:1016400000F00F00A84207D988F8F853D8F8F8033B
:1016500000F00F00A8424BD12068410707D5D8F809
:101660000010E26821F4E0511143C8F800100007AF
:1016700008D5D8F80000216920F4604040EAC10094
:10168000C8F8000000F082F8D8F8001043F6CC4209
:10169000C1F30311C0F60002515C40F2280220FAA7
:1016A00001F140F22400C2F200000068C2F2000220
:1016B0001160FFF7BDFE0020BDE8F0816068811E6B
:1016C000022907D258F8081C89015CBF0120BDE837
:1016D000F08111E0012807D158F8081C89035CBF8C
:1016E0000120BDE8F08107E058F8081C890703D401
:1016F0000120BDE8F08100BFD8F8001021F00301FF
:101700000843C8F80000FFF763FE064641F2883739
:10171000D8F80000616800F00C00B0EB810F8DD0AC
:10172000FFF756FE801BB842F2D90320BDE8F081D6
:101730004C20C4F2472001210160704740F228008C
:1017400043F60801C2F20000C4F202010068096811
:1017500043F6DC42C1F38221C0F60002515CC8406E
:101760007047000040F2280043F60801C2F2000072
:10177000C4F202010068096843F6DC42C1F3423159
:10178000C0F60002515CC8407047000010B543F637
:101790000404C4F20204606800F00C0008280BD0B6
:1017A000042819BF42F20040C0F2F40041F60030B4
:1017B000C0F2B70010BD00BF20682168236849024D
:1017C00041F60031C0F2B70100F03F02C3F38810C8
:1017D0005CBF42F20041C0F2F401A1FB0001002312
:1017E000FEF754FD21680222C1F3014102EB4101E1
:1017F000B0FBF1F010BD000010B543F60C04C4F2CC
:1018000002042068000658BF10BDFFF7DFFE8020ED
:10181000A07010BD2DE9F04182B0002868D00446C8
:10182000007843F60006C007C4F202060BD0B06889
:1018300000F00C00042840F09F803068800302D53F
:101840006068002854D0207880071AD5B06810F05E
:101850000C0F09D0B06800F00C00082840F0A680FA
:101860007068400200F1A2803068800702D5E0680D
:1018700001283DD13068216920F0F80040EAC1001C
:1018800030602078000737D4207840074CD4A56911
:1018900055B3B06800F00C00082840F0BB80012D63
:1018A00026D07068E16900F480028A4220D1216A62
:1018B00000F03F028A421BD147F6C071626A0140C4
:1018C000B1EB821F14D1A16A4FF6FF73C90399438C
:1018D00000F44032A1F580318A4209D1E16A00F07A
:1018E0007060B0EB016F03D1002002B0BDE8F08161
:1018F000012002B0BDE8F0816069002840F20000DC
:10190000C4F2472076D00121C0F8801EFFF760FDA9
:10191000054600BF706F8007B6D4FFF759FD401B26
:101920000228F7D9DDE000BF306C10F080580AD1F2
:1019300000200190306C40F080503064306C00F03A
:1019400080500190019847F20007C4F20007386800
:10195000C00541D4386840F480703860FFF738FD26
:10196000054600BF3868C00536D4FFF731FD401B7F
:101970000228F7D9B5E000BFB06800F00C000828D5
:1019800003D1706840023FF558AF6068B0F5803F02
:1019900007D0B0F5A02F40F08D80306840F4802053
:1019A0003060306840F4803030608DE0E0680028BE
:1019B00052D00020C4F2472001210160FFF708FD4A
:1019C000054600BF306880073FF554AFFFF700FDC4
:1019D000401B0228F6D984E0A068012805D005281C
:1019E0004ED1306F40F004003067306F40F001009E
:1019F00030674FE00021C0F8801EFFF7E9FC054684
:101A0000706F80077FF540AFFFF7E2FC401B0228B4
:101A1000F6D966E00027C4F2472700203866FFF7B2
:101A2000D7FC022D05460BD1306880015ED5FFF74B
:101A3000CFFC401B02284FF00300F5D955E700BF4B
:101A4000306880017FF550AFFFF7C2FC401B0228D1
:101A50004FF00300F4D948E70020C4F247200021EA
:101A60000160FFF7B5FC0546306880077FF509AFD8
:101A7000FFF7AEFC401B02284FF00300F4D934E717
:101A8000316F002821F001013167316F21F004012D
:101A900031674DD0FFF79CFC054641F2883700BF07
:101AA000306F800756D4FFF793FC401BB842F7D93C
:101AB00017E000BF3168002821F4803131603168BF
:101AC00021F4802131604FD0FFF782FC054600BF32
:101AD000306880033FF5B7AEFFF77AFC401B6428FF
:101AE000F6D9032002B0BDE8F08100BF04F11C0567
:101AF0002FCD084340EA8210D9034FF6FF7291437D
:101B0000A1F5803140EA0560084370600120386625
:101B1000FFF75EFC044600BF306880013FF5E4AE8D
:101B2000FFF756FC001B02284FF00300F4D9DCE657
:101B3000FFF74EFC054641F2883700BF306F800743
:101B400008D5FFF745FC401BB8424FF00300F5D91C
:101B5000CBE600BFB8F1000F7FF499AE306C20F0F7
:101B60008050306493E600BFFFF732FC054600BFAB
:101B7000306880037FF567AEFFF72AFC401B6428BE
:101B80004FF00300F4D9B0E6411E0020B0EB116F16
:101B90001CBF012070474EF21002CEF200025160CD
:101BA0004EF62351CEF20001F0230B700721906016
:101BB000116070477047000070470000B0B590F8A2
:101BC0003C20012A04BF0220B0BD01F108053CCD34
:101BD000D1E900CE23F47C5322F470521A432EF440
:101BE000F0431A432CF4E0431A4324F4C0431A434D
:101BF0002A43C96922F480420368114359640021D1
:101C000080F83C100846B0BD10B590F83C20012A81
:101C10004FF0020251D080F83D200268D2F804E073
:101C2000D2F808C00C682EF07003234341F2FF7411
:101C3000C4F20004A24253600EDC40F2FF73C4F20F
:101C400000039A4216DCB2F1804F2BD040F20043E1
:101C5000C4F2000324E000BF40F2FF33C4F20103EA
:101C60009A4213DC41F60003C4F200039A4219D0F1
:101C7000002313E040F60003C4F200039A4211D09F
:101C800040F60043C4F200030AE000BF44F2000340
:101C9000C4F201039A4205D040F20043C4F20103AA
:101CA0009A4204D149682CF08003194391600121C4
:101CB000002280F83D1080F83C20104610BD000046
:101CC000002804BF0120704710B5044690F83D007D
:101CD00028B9002084F83C00204600F01FF80220BC
:101CE00084F83D002068211D01F012FC012084F8D9
:101CF000460084F83E0084F83F0084F8400084F8F1
:101D0000410084F8420084F8430084F8440084F8D9
:101D1000450084F83D00002010BD000080B584B06F
:101D2000006841F20001C4F20001884224D041F66B
:101D30000001C4F20001884238D00021C4F2010140
:101D4000884242D10020039043F64000C4F20200D2
:101D50004168002241F0010141604068022100F029
:101D60000100039003981920FFF7B6FB192004B077
:101D7000BDE88040FFF79CBB0020029043F6400086
:101D8000C4F202000168002241F010010160006805
:101D9000022100F01000029002983620FFF79CFB11
:101DA000362004B0BDE88040FFF782BB00200190E0
:101DB00043F64000C4F20200016841F040010160B6
:101DC000006800F040000190019804B080BD000060
:101DD00090F83D1001291CBF01207047022180F8B6
:101DE0003D10006841F2FF72C168C4F200029042E7
:101DF00041F00101C1600DDC40F2FF71C4F200014D
:101E0000884215DCB0F1804F2AD040F20041C4F284
:101E1000000123E040F2FF31C4F20101884213DCEB
:101E200041F60001C4F20001884219D0002113E0FC
:101E300040F60001C4F20001884211D040F6004192
:101E4000C4F200010AE000BF44F20001C4F2010143
:101E5000884205D040F20041C4F20101884206D117
:101E6000816801F00701062904BF0020704701685E
:101E700041F00101016000207047000080B590F83A
:101E80003C20012A4FF0020200F0C28080F83D2081
:101E9000D0F800C04FF67772DCF8083023EA02026F
:101EA000CCF808200B684F2B28DC1F2B44DD202B9F
:101EB00045D0302B43D0402B40F0AC80D1F804E02B
:101EC000C968DCF82030DCF8202022F00102CCF8D0
:101ED0002020DCF8182022F0F00242EA011123F061
:101EE0000A0242EA0E02CCF81810CCF82020DCF8E6
:101EF000081041F0470121F0300180E06F2B27DD11
:101F0000B3F5005F48D0B3F5805F7AD0702B40F016
:101F10008180D1E901E3C968DCF8082043EA0E03B7
:101F200022F47F4243EA01211143CCF80810DCF887
:101F3000081041F0770162E00BB1102B6AD1DCF898
:101F4000081021F07001194341F0070157E000BF6C
:101F5000502B35D0602B5DD1D1F804E0C968DCF896
:101F60002030DCF8202022F01002CCF82020DCF811
:101F7000182022F4704242EA013123F0A00242EA22
:101F80000E12CCF81810CCF82020DCF8081041F024
:101F9000670121F0100132E0D1E901E3C968DCF802
:101FA000082043EA0E0322F47F4243EA0121114351
:101FB000CCF80810DCF8081041F480411FE000BFA5
:101FC000D1F804E0C968DCF82030DCF8202022F0E9
:101FD0000102CCF82020DCF8182022F0F00242EABE
:101FE000011123F00A0242EA0E02CCF81810CCF8D4
:101FF0002020DCF8081041F0570121F02001CCF836
:1020000008100022012180F83D10002180F83C10CA
:10201000104680BD0122F5E77047000070B5044608
:102020000068C5680669B10716D515F0020113D01E
:102030006FF002010161012121778069800703D0DF
:102040002046FFF7E9FF05E0204600F08FF8204624
:1020500000F0D0F900202077700719D515F00400A2
:1020600016D020686FF00401016102212177806998
:1020700010F4407F04D02046FFF7CEFF06E000BFFB
:10208000204600F073F8204600F0B4F900202077D5
:10209000300717D515F0080014D020686FF008013C
:1020A000016104212177C069800703D02046FFF732
:1020B000B3FF05E0204600F059F8204600F09AF9F9
:1020C00000202077F00619D515F0100016D02068F2
:1020D0006FF01001016108212177C06910F4407F81
:1020E00004D02046FFF798FF06E000BF204600F02E
:1020F0003DF8204600F07EF900202077F00718BF59
:1021000015F0010002D1300609D412E020686FF00A
:1021100001010161204600F0F9F9300609D515F0FA
:10212000800006D020686FF0800101612046FFF733
:1021300041FD700609D515F0400006D020686FF00B
:1021400040010161204600F011FAB00658BF70BD91
:1021500015F0200008D021686FF0200220460A61A7
:10216000BDE87040FFF728BD70BD0000704700005B
:102170002DE9F04390F83C30012B04BF0220BDE86C
:10218000F0834FEAB202032A00F2FC80DFE802F09B
:10219000023E7EBE036840F200471C6A1A6A24F0C1
:1021A000020422F001021A621A46D3F804E052F83F
:1021B00018CF8E6843F48065C4F20107BD4244EA3B
:1021C000060405D1CE6824F00C0426F0040634433E
:1021D0000E68BD4207D1D1E905572EF4407E45EA8D
:1021E0000E0545EA070E2CF073073743C3F804E0E9
:1021F0009F614F6809695F631C629F6947F0080728
:102200009F619F6927F004079F61B1E0036840F276
:1022100000481C6A1A6A24F0200422F010021A6294
:102220001A46D3F804C052F818EF8F6843F480655B
:10223000C4F20108454544EA071407D1CF686FF09E
:10224000400624F0C00406EA07163443D1F8009093
:10225000454506D1D1E905562CF440672E4347EA9F
:10226000860C2EF4E64747EA0927C3F804C09F61AD
:102270004F6809699F631C629F6947F400679F610B
:102280009F6927F480679F6171E000BF036840F297
:1022900000481C6A1A6A24F4007422F480721A62DC
:1022A0001A46D3F804C052F81CEF8F6843F48065D7
:1022B000C4F20108454544EA072408D1CF6840F23A
:1022C000FF463F0224F4406427EA06063443D1F86F
:1022D0000090454506D1D1E905562CF440572E43D0
:1022E00047EA061C2EF0730747EA0907C3F804C043
:1022F000DF614F680969DF631C62DF6947F0080727
:10230000DF61DF6927F00407DF6131E0036840F235
:102310000045D3F820C01A6A43F4806722F4805243
:102320001A621A465C6852F81CEFD1F800808E6879
:10233000C4F20105AF4204D14D6924F4804444EA5B
:1023400085142CF4005747EA06372EF4E64646EA91
:1023500008265C60DE614E6809691E641F62DF69E1
:1023600047F40067DF61DF6927F48067DF610902F6
:102370001368194311600021002280F83C200846B0
:10238000BDE8F0830121002280F83C200846BDE82A
:10239000F0830000002804BF0120704710B50446F8
:1023A00090F83D0028B9002084F83C00204600F059
:1023B0001FF8022084F83D002068211D01F0A8F8D4
:1023C000012084F8460084F83E0084F83F0084F839
:1023D000400084F8410084F8420084F8430084F807
:1023E000440084F8450084F83D00002010BD000042
:1023F000704700007047000041B1082910D004293F
:1024000014BF00F1410200F13F020BE090F83E20C2
:10241000012A1CBF01207047022280F83E2013E0F1
:1024200000F140021278012A1CBF012070470222ED
:10243000082907D0042914BF80F8412080F83F20E4
:1024400002E000BF80F84020006801F01F01012277
:10245000036A02FA01F123EA01020262026A1143ED
:1024600041F2FF72C4F20002904201620CDC40F2C1
:10247000FF71C4F20001884214DCB0F1804F37D004
:1024800040F2004116E000BF40F2FF31C4F201010A
:10249000884215DC41F60001C4F20001884227D0D1
:1024A000002115E040F60001C4F2000188421FD06F
:1024B00040F60041C4F20001884219D01FE000BF7D
:1024C00044F20001C4F20101884211D040F20041FF
:1024D000C4F20101884212D1416C40F2004340F441
:1024E0008062C4F2010341F400419A42416406D182
:1024F000816801F00701062904BF002070470168C8
:1025000041F00101016000207047000040F21421F9
:10251000C2F20001884217D040F2A421C2F20001A9
:10252000884218BF704740F20002C2F2000240F237
:102530002C1040F2D80302F10801C2F20000C2F2EE
:102540000003FEF705B800BF086840F2D80CC2F2DD
:10255000000CC16ADCF8043001310133B3FBF1F245
:10256000CCF8043002FB11318163704770470000E2
:1025700070B582B0044690F8420020280AD1134674
:102580000A4600294FF0010018BF002B06D102B007
:1025900070BD00BF022002B070BD00BF01202063EB
:1025A000002622206663A262A385666484F8420046
:1025B0002168E06B43F2E97C43F6491E43F26D6506
:1025C000C0F6000CC0F6000EC0F600050431C0E9EC
:1025D0000FCEC0E91356FEF7C3FDD8B310206064D8
:1025E000202084F842000120216B012940F0B280B4
:1025F0000021009121680A680092496800910099C1
:10260000216851E8031F226841F0100142E80313DA
:10261000002BBCD0216851E8031F226841F0100153
:1026200042E80313002BB2D0216851E8031F22684F
:1026300041F0100142E80313002BA8D0216851E8B3
:10264000031F226841F0100142E80313002BD7D189
:102650009DE700BF019620680168019140680190E4
:102660000198206930B300BF206850E8030F21684B
:1026700040F4807041E80302E2B1206850E8030FA3
:10268000216840F4807041E803029AB1206850E864
:10269000030F216840F4807041E8030252B12068C2
:1026A00050E8030F216840F4807041E80302002ADB
:1026B000DAD100BF206850E8050F216840F0010022
:1026C00041E80502BAB3206850E8050F216840F0E0
:1026D000010041E8050272B3206850E8050F216847
:1026E00040F0010041E805022AB3206850E8050FD8
:1026F000216840F0010041E80502002ADAD11AE021
:10270000206850E8050F216840F0400041E80502CC
:10271000DAB1206850E8050F216840F0400041E838
:10272000050292B1206850E8050F216840F0400092
:1027300041E805024AB1206850E8050F216840F0E1
:10274000400041E80502002ADAD10020216B01296E
:102750003FF44EAF012002B070BD0000F0B581B073
:1027600040F2EC22C2F20002904202D1506B0128EA
:1027700002D101B0F0BD00BF40F2181540F20416BE
:102780000C46C2F20005C2F2000628463146224637
:10279000FDF7F4FD40F2EC27C2F200073846294667
:1027A000224600F07DFB38463146142201B0BDE8D8
:1027B000F040FFF7DDBE000070470000B0B582B00A
:1027C000044600680168C368426901F02F05202DA6
:1027D00003F0200506D12DB1204602B0BDE8B0407F
:1027E00001F01AB95FEA017C1EBF02F0010E03F48A
:1027F000907212EB0E0253D1226B012A05D111F017
:10280000100218BF13F0100236D10A0622D513F0B9
:1028100080021FD094F8411021293FD1A168B1F561
:10282000805F03D12169002900F08282216A4A1C5D
:10283000226209784160E18C01390A04E1842DD1DA
:10284000C16821F08001C160C16841F04001C160F0
:1028500002B0B0BD490621D513F040011ED0C168B9
:1028600021F04001C1602021204684F8411002B0CF
:10287000BDE8B04000F07ABB0021019101680191F0
:102880004168019101994069400613D4A08DE18D02
:10289000E28D002A18BF884240F0CC8102B0B0BD62
:1028A000CA0718BF13F4807240F0BE804A0700F1D7
:1028B000C180C6E0E06B01684A68A38D91B200292F
:1028C00000F0A881994280F0A581E285C069B0F549
:1028D000807F00F09D80206850E8030F216820F47D
:1028E000807041E80302DAB1206850E8030F2168E4
:1028F00020F4807041E8030292B1206850E8030F91
:10290000216820F4807041E803024AB1206850E851
:10291000030F216820F4807041E80302002ADAD115
:10292000206850E8050F216820F0010041E8050209
:10293000BAB3206850E8050F216820F0010041E893
:10294000050272B3206850E8050F216820F00100ED
:1029500041E805022AB3206850E8050F216820F0FD
:10296000010041E80502002ADAD11AE0206850E8A7
:10297000050F216820F0400041E80502DAB1206827
:1029800050E8050F216820F0400041E8050292B1AF
:10299000206850E8050F216820F0400041E805025A
:1029A0004AB1206850E8050F216820F0400041E856
:1029B0000502002ADAD1202084F84200002020639A
:1029C000206850E8030F216820F0100041E803025E
:1029D000DAB1206850E8030F216820F0100041E8C8
:1029E000030292B1206850E8030F216820F0100024
:1029F00041E803024AB1206850E8030F216820F043
:102A0000100041E80302002ADAD1E06BFEF7BCF9BE
:102A100002206063A08DE18D401A81B2204602B091
:102A2000BDE8B040FFF79ABE626C42F001026264FA
:102A30004A0706D5BEF1000F03D0626C42F00202D5
:102A400062648A0706D5BEF1000F03D0626C42F0C3
:102A500004026264BCF1000F09D545EA0E02B2FA25
:102A600082F2520903D1626C42F008026264626C25
:102A7000002A3FF413AF11F0200118BF002D03D03E
:102A8000204600F0C9FF20684069616C00F04000FA
:102A900001F00801401800F0B58000BF206850E840
:102AA000030F216820F4907041E80302BAB3206854
:102AB00050E8030F216820F4907041E8030272B3DC
:102AC000206850E8030F216820F4907041E8030269
:102AD0002AB3206850E8030F216820F4907041E881
:102AE0000302002ADAD11AE0206850E8050F2168B5
:102AF00020F0010041E80502DAB1206850E8050F36
:102B0000216820F0010041E8050292B1206850E8F8
:102B1000050F216820F0010041E805024AB1206854
:102B200050E8050F216820F0010041E80502002A65
:102B3000DAD1206B012824D1206850E8030F2168E6
:102B400020F0100041E80302DAB1206850E8030FDA
:102B5000216820F0100041E8030292B1206850E89B
:102B6000030F216820F0100041E803024AB12068F9
:102B700050E8030F216820F0100041E80302002A0A
:102B8000DAD1202084F842000020206320684069C8
:102B9000400649D5206850E8050F216820F0400024
:102BA00041E80502DAB1206850E8050F216820F0FD
:102BB000400041E8050292B1206850E8050F216805
:102BC00020F0400041E805024AB1206850E8050FB6
:102BD000216820F0400041E80502002ADAD1E06BCC
:102BE00010B343F26161C0F600010165FEF714F90C
:102BF00000283FF453AEE06B016D02B0BDE8B04079
:102C0000084700BF2046FFF7D7FD0020606402B0F0
:102C1000B0BD00BF8B427FF441AEC069B0F5807F8C
:102C20007FF43CAE02227CE0204602B0BDE8B0401A
:102C3000FFF7C2BD401A216851E8031F226821F442
:102C4000907142E80313DBB1216851E8031F226849
:102C500021F4907142E8031393B1216851E8031FF6
:102C6000226821F4907142E803134BB1216851E8C6
:102C7000031F226821F4907142E80313002BDAD17C
:102C8000216851E8051F226821F0010142E805137F
:102C9000DBB1216851E8051F226821F0010142E8FB
:102CA000051393B1216851E8051F226821F0010145
:102CB00042E805134BB1216851E8051F226821F055
:102CC000010142E80513002BDAD1202184F84210DB
:102CD00000212163216851E8031F226821F01001BF
:102CE00042E80313DBB1216851E8031F226821F099
:102CF000100142E8031393B1216851E8031F2268D1
:102D000021F0100142E803134BB1216851E8031F81
:102D1000226821F0100142E80313002BDAD10222CD
:102D200081B22046626302B0BDE8B040FFF716BD35
:102D3000216A31F8022B6FF35F22426021627AE54B
:102D4000002804BF0120704710B5044690F84100E8
:102D500028B9002084F84000204600F021F8242003
:102D600084F841002068C16821F40051C160204608
:102D700000F0D2FE2068016921F4904101614169AF
:102D800021F02A014161C16841F40051C160002075
:102D90002021606484F8411084F84210606310BD03
:102DA0002DE9F04385B00446016847F60000C4F2FF
:102DB0000000814202D005B0BDE8F083002643F652
:102DC00030010096C4F202010A6946F2280842F076
:102DD00080420A610A6900F5CC3002F0804200921C
:102DE000009A00960A68C4F2020842F010020A60D3
:102DF000096801F01001009100994FF4C071009131
:102E00000221CDE9011603210391082104916946AD
:102E1000FEF704FA40F2541508F13000C2F2000542
:102E20004FF020674FF48069C5E900072846C5E9DF
:102E30000266C5E90496C5E90666C5E90866FEF7B7
:102E4000DDF8002818BFFDF767FBE563AC6340F2CF
:102E5000B415C2F20005402005F1080181E84102E5
:102E60002846C5E90087C5E90566C5E907666E62BB
:102E7000FEF7C4F8002818BFFDF74EFB52200221D0
:102E80000022A563AC63FEF727FB5220FEF710FB80
:102E900005B0BDE8F08300007047000070470000F7
:102EA000B0B5044690F8410020281CBF0220B0BDF8
:102EB00000294FF0010056D0002A134608BFB0BDCC
:102EC0004FF0000C21202162A384E384C4F844C0A5
:102ED00084F84100A06B43F6611E43F61125226879
:102EE000C0F6000EC0F60005C0E90FE543F26D65BF
:102EF000C0F600050432C0E9135CFEF731F938B1C1
:102F000010206064202084F841000120B0BD00BF83
:102F100020686FF040010160206850E8050F2168CB
:102F200040F0800041E80502F2B1206850E8050F4A
:102F3000216840F0800041E80502AAB1206850E80D
:102F4000050F216840F0800041E8050262B1206869
:102F500050E8050F216840F0800041E80502002A92
:102F60004FF00000D8D1B0BD0020B0BD70470000C8
:102F700070470000FEE7000080B540F22C1046F2DA
:102F80000041C2F20000C4F200010522002380E8E3
:102F90000E0000F10C014FF4A02C4FF4801E81E8CC
:102FA000085083618383FDF763FD002808BF80BD5F
:102FB000BDE88040FDF7B0BA80B582B00020019036
:102FC00043F63000C4F202000168002241F400110F
:102FD00001600068002100F40010019001980C20AD
:102FE000FEF77AFA0C20FEF763FA0E200021002289
:102FF000FEF772FA0E2002B0BDE88040FEF758BA24
:10300000F0B587B0002643F63000CDE9056601969D
:10301000C4F20200016841F2004441F00101016084
:103020000168C4F2020401F00101019101990196C5
:103030000168002241F00801016001684FF48047F7
:1030400001F00801019101990196016841F08001A8
:103050000160016801F08001019101990196016808
:1030600041F002010160016801F002010191019942
:103070000196016841F010010160016801F0100142
:10308000019101990196016841F0200101600068F9
:103090004FF4804100F02000019001982046FEF797
:1030A00091F9042002904FF488100390022002ADA1
:1030B0000490A4F580502946FEF7B0F80120CDE930
:1030C00003002046294602970596FEF7A7F8082038
:1030D00002210022FEF700FA0820FEF7E9F907B006
:1030E000F0BD0000B0B590B041F6000540F25C20A4
:1030F000C4F200050021C2F20000592240F2E73379
:103100000A91CDE908110691CDE90411CDE902112A
:10311000CDE90011C0E90052C0E9021301618161EB
:10312000FEF7CEFD002818BFFDF7F6F94FF48050EA
:10313000079040F25C20C2F2000007A9FEF79EFE55
:10314000002818BFFDF7E8F940F25C20C2F2000049
:10315000FFF720F9002818BFFDF7DEF96020009086
:1031600040F2F31040F25C2401900020C2F200040F
:1031700002900490694620460022FEF7F9FF0028DD
:1031800018BFFDF7C9F92068A84219D00021C4F280
:103190000101884231D100200B9043F63000C4F287
:1031A000020001684FF4006241F010010160006804
:1031B000012100F010000B900B9805F5FC3012E097
:1031C00000200B9043F63000C4F202000168402258
:1031D00041F0800101600068092100F080000B903F
:1031E0000B9805F501300B9202220C9200220F91F0
:1031F0000BA9CDE90D22FEF711F810B0B0BD00000B
:10320000B0B59CB0002540F21420C4F201050021A5
:10321000C2F20000B32240F2E7331691CDE9141157
:103220001191CDE90F11CDE90D11CDE90B11CDE9CA
:103230000911CDE90711CDE90511CDE90311CDE95A
:103240000111C0E90052C0E90213C0E90411816113
:10325000FEF736FD002818BFFDF75EF94FF48050E9
:10326000139040F21420C2F2000013A9FEF706FEEC
:10327000002818BFFDF750F940F21420C2F20000F8
:10328000FFF788F8002818BFFDF746F940F2142030
:103290000024C2F2000010A9CDE91044FEF7B4FCEE
:1032A000002818BFFDF738F97020099040F2F3109C
:1032B000CDE90A0440F21420C2F2000009A9042258
:1032C000CDE90C44CDE90E44FEF752FF002818BFAB
:1032D000FDF722F940F2142400204FF40051C2F20D
:1032E00000040590CDE90300CDE9010006910890A6
:1032F00001A92046FEF762FC002818BFFDF70CF973
:10330000206841F60001C4F20001884216D0A842AC
:1033100031D10020179043F63000C4F2020001685A
:103320004FF4006241F0100101600068012100F0DB
:1033300010001790179805F5883012E000201790BC
:1033400043F63000C4F202000168402241F08001DF
:1033500001600068092100F080001790179805F5BA
:103360008E3017920222189200221B9117A9CDE9E4
:103370001922FDF753FF1CB0B0BD000080B582B02C
:1033800040F2A42041F200020021C2F20000C4F287
:103390000002592340F2E73CCDE90011C0E90023C7
:1033A000C0E9021C8161FEF78BFC002818BFFDF705
:1033B000B3F840F2A420C2F200006946FEF724FCF4
:1033C000002818BFFDF7A8F802B080BD10B540F284
:1033D000EC2047F6000CC2F20000C4F2000C4FF4DF
:1033E000E1324FF4805300214FF4806E0C24C0E989
:1033F00000C2C0E90231C0E904E4C0E90611FFF7E8
:103400009FFC002808BF10BDBDE81040FDF784B840
:10341000FEE70000FEF7F0F9FEE70000704700004D
:1034200070470000FDF7DABF80B592B0002043F688
:103430004001CDE90A00CDE908000590CDE903007F
:10344000CDE901000090C4F202010A6842F0805206
:103450000A60096801F0805100910099009047F2DC
:103460000000C4F20000016841F4404101600068BE
:103470004FF4800100F44040009000980120069035
:103480004FF480300D910621079002200E91B42157
:103490000C90CDE90F100420119006A8FEF7BAF9A0
:1034A00010B172B6FEE700BFFEF752F810B172B667
:1034B000FEE700BF0F200190022002900020039041
:1034C0004FF4A05004904FF48050059001A80521BE
:1034D000FEF77EF810B172B6FEE700BFFEF728F9DE
:1034E00012B080BD4EF68850CEF20000016841F463
:1034F000700101607047000040F21420C2F2000029
:10350000FEF78CBD40F2A420C2F20000FEF786BD9B
:10351000B0B540F6FF3E0568C4F2000E40F2004C24
:103520007045C4F2010C27DCB0F1804F31D040F27D
:103530000043C4F2000398422BD040F60003C4F2CB
:103540000003984225D041F6FF73C4F2000398426D
:103550002ADC70453CDCB0F1804F5FD040F2004384
:10356000C4F20003984259D040F60003C4F20003AD
:10357000984253D057E000BF40F60043C4F2000326
:10358000984206D0604504D00023C4F2010398425B
:10359000D9D14B6825F0700243EA020541F6FF736A
:1035A000C4F200039842D4DD43F6FF73C4F2010372
:1035B000984221DC42F20003C4F2000398422DD06D
:1035C0000023C4F20103984228D0604526D02AE0A7
:1035D00040F60043C4F2000398421FD041F60003B6
:1035E000C4F20003984219D041F60043C4F200032C
:1035F000984213D017E000BF44F20003C4F2010365
:1036000098420BD044F60003C4F20103984205D05F
:1036100044F20043C4F20103984204D1CB6825F47C
:10362000407243EA02050A688C684B69C46240F440
:1036300080648262644504BF09690163026825F001
:10364000800142F0040219430260012242610160DC
:10365000B0BD000040F2EC20C2F20000FFF7AEB8AF
:10366000806B0021C185FFF7A7B80000806B01685F
:103670004A6990F84130212B2DD112F080022AD0D6
:103680000021C184016851E8031F026821F0C001D4
:1036900042E80313DBB1016851E8031F026821F01F
:1036A000C00142E8031393B1016851E8031F0268A7
:1036B00021F0C00142E803134BB1016851E8031F38
:1036C000026821F0C00142E80313002BDAD1202167
:1036D00080F841100168496990F84220222A40F0A0
:1036E0007D8011F0400179D00021C185016851E849
:1036F000031F026821F4907142E80313BBB3016811
:1037000051E8031F026821F4907142E8031373B378
:10371000016851E8031F026821F4907142E8031325
:103720002BB3016851E8031F026821F4907142E84D
:103730000313002BDAD11AE0016851E8051F026873
:1037400021F0010142E80513DBB1016851E8051FD2
:10375000026821F0010142E8051393B1016851E8C4
:10376000051F026821F0010142E805134BB1016811
:1037700051E8051F026821F0010142E80513002B02
:10378000DAD1016B012924D1016851E8031F0268D5
:1037900021F0100142E80313DBB1016851E8031F77
:1037A000026821F0100142E8031393B1016851E867
:1037B000031F026821F0100142E803134BB10168B6
:1037C00051E8031F026821F0100142E80313002BA7
:1037D000DAD1202180F8421000210163416C41F0D0
:1037E00010014164FEF7E8BF0168806B0968C905F4
:1037F00000F19F800021C185016851E8031F026824
:1038000021F4807142E80313E3B1016851E8031F1A
:10381000026821F4807142E803139BB1016851E80A
:10382000031F026821F4807142E8031353B1016859
:1038300051E8031F026821F4807142E80313002B52
:10384000DAD100BF016851E8051F026821F00101CB
:1038500042E80513BBB3016851E8051F026821F077
:10386000010142E8051373B3016851E8051F0268BE
:1038700021F0010142E805132BB3016851E8051F4F
:10388000026821F0010142E80513002BDAD11AE0A9
:10389000016851E8051F026821F0400142E8051364
:1038A000DBB1016851E8051F026821F0400142E8E0
:1038B000051393B1016851E8051F026821F040012A
:1038C00042E805134BB1016851E8051F026821F079
:1038D000400142E80513002BDAD1202180F8421084
:1038E000016B012925D100BF016851E8031F02685F
:1038F00021F0100142E80313DBB1016851E8031F16
:10390000026821F0100142E8031393B1016851E805
:10391000031F026821F0100142E803134BB1016854
:1039200051E8031F026821F0100142E80313002B45
:10393000DAD100214163016B012918BFFFF7ACBA4E
:10394000818DFEF70BBF0000806B01214163016B8D
:10395000012918BFFFF7A2BA818D4908FEF7FEBE04
:103960000168806B0968C90548BFFFF7FFBA0021ED
:10397000C18400BF016851E8051F026821F0800181
:1039800042E8051383B3016851E8051F026821F07E
:10399000800142E805133BB3016851E8051F026846
:1039A00021F0800142E80513F3B1016851E8051FD9
:1039B000026821F0800142E80513002BDAD113E000
:1039C000016851E8031F026841F0400142E8031317
:1039D000002B08BF7047016851E8031F026841F0DF
:1039E000400142E8031393B1016851E8031F0268E4
:1039F00041F0400142E803134BB1016851E8031F55
:103A0000026841F0400142E80313002BD8D170470F
:103A1000806BFFF7ADBA000081B090F84210222908
:103A200021D183680246B3F5805F09D152F8281F7F
:103A300052F8183C002B63D003685B680AE000BFB3
:103A400052F8281F13B90369002BF5D003685B688F
:103A500003F07F030B70116801311160C18D0139D2
:103A60000A04C18502D001B0704700BF0168CA686E
:103A700022F02002CA60CA6822F48072CA604A69D1
:103A800022F001024A61202180F8421000214163A6
:103A9000026B012A3CD10163016851E8031F0268EF
:103AA00021F0100142E80313DBB1016851E8031F64
:103AB000026821F0100142E8031393B1016851E854
:103AC000031F026821F0100142E803134BB10168A3
:103AD00051E8031F026821F0100142E80313002B94
:103AE000DAD101680A68D20606D5002200920A6877
:103AF0000092496800910099818D01B0FEF72EBEB9
:103B0000026852686FF35F2221F8022B8162A5E7F9
:103B100001B0FFF7C1B9000010B504460068D4E950
:103B200002C22369016921F44051114301616269B4
:103B300043EA0C01E3691143C268194349F20C637B
:103B40009A431143C1604169A26921F4407141F275
:103B50000043114340F48062C4F201039A42416180
:103B600002D1FDF7FFFD01E0FDF7E8FDE1696368C3
:103B70001922B1F5004FA0FB020123D15A00DB0F3F
:103B8000FCF784FB48F21F51C5F2EB11A0FB0123A7
:103B90005A094FF69C73C0F6FF7303F1805302FB82
:103BA0000300322303EBC000A0FB01014FF4F870C7
:103BB00000EA111000EB0210C1F342110844216821
:103BC000886010BD9A009B0FFCF760FB48F21F5104
:103BD000C5F2EB11A0FB01235A094FF69C73C0F606
:103BE000FF7302FB0300322303EB0010A0FB010173
:103BF000F02000EA511000EB0210C1F34311084419
:103C00002168886010BD0000FEE70000FDF7F4FBAE
:103C100042F20800CEF20400016841F480510160D4
:103C2000FFF702FCFFF7ECF9FFF7C6F9FFF7E8FA38
:103C3000FFF758FAFFF7CAFBFFF79EF9FFF79EFB65
:103C400040F21424C2F200042046FEF7C1F82046D8
:103C50000421FEF7D1FB40F2EC2040F20411C2F245
:103C60000000C2F200011422FEF782FC41F2004083
:103C7000C4F202004FF480410122FDF7A3FB40F2A1
:103C80002C14C2F2000440F22C01C2F200012046C2
:103C9000FCF7B2FC2046FDF73BF820460221FCF77A
:103CA0003FFC40F2A420C2F20000FEF791F800BFF2
:103CB000FEE7F1EE100A4FF6FF71C0F2C03120EAC4
:103CC000010040F04070E1EE100A70470000000073
:103CD00000000000010203040607080900000000BC
:103CE000010203040006101600061016103D00081D
:103CF0000000002078000000E8010008883D00086E
:103D000078000020C0080000040200080000000045
:103D10000000000000C000000002000000000000E1
:103D2000000000000000000008000000000000008B
:103D300001000000100000000024F400000000005A
:103D40000000000000000000000000000000000073
:103D50000000000000000000010000000100000061
:103D60000000000000000040000000000000000013
:103D70000000000000000000000000000000000043
:083D800000000000000000003B
:04000005080001AD41
:00000001FF
